:0A0000000203001203C202030032E3
:0D000B00DC07C292C2930203B702037732F2
:10030000C294C295C296C290C291C292C293D28048
:0F031000D281D282D2832083FD75B80175880116
:0E031F0075A8812080028006D294D29580F5C8
:0F032D00208102800AD296D29580F5D295D29780
:10033C0075A0FFC2B7D2B6C2B5D2B520B4FDC2B754
:0F034C00C2B6E5A0F9B91AE43082FDD29071A0D3
:10035B00C290D29171A0C2917A1471A0DAFCD290A2
:0F036B007B1471A0DBFCC2907C8CD2927589113F
:0F037A00758C00758A0075A882D28CD293791089
:100389007197D9FCC2937A047197DAFC80EE7E7377
:0F0399007F73DEFEDFFE227D0E758911758D00EC
:0F03A800758B00D28E308FFDC28EC28FDDEC229E
:0F03B700D2957C0271A0DCFC020300C290C291BF
:1003C600C292C293C294C295C296C2972083FD225E
:00000001FF
